:10000000C0080010091500006915000069150000FE
:100010006915000069150000691500000000000066
:100020000000000000000000000000006915000052
:100030006915000000000000691500006915000046
:1000400069150000691500006915000069150000B8
:1000500069150000691500006915000069150000A8
:100060006915000069150000691500006915000098
:100070006915000069150000691500006915000088
:100080006915000069150000691500006915000078
:100090006915000069150000691500006915000068
:1000A0006915000069150000691500006915000058
:1000B0006915000069150000691500006915000048
:1000C00069150000691500006915000080B586B04B
:1000D00000AF786039600023BB6000233B617A6821
:1000E000314B9A4207D07A68304B9A4203D030485D
:1000F0004F2101F03DFA7A682B4B9A4205D14FF41B
:10010000005000F0B9FB386104E04FF4804000F08B
:10011000B3FB38613A693B68B2FBF3F3BB60182369
:10012000FB7528E0FA7DBB68B3FBF2F102FB01F23C
:100130009B1A002B1CD1FB7DBA68B2FBF3F3013B89
:10014000FB60FB7D013BFB75FA7D1A4BA3FB0213A1
:100150005B08DBB2013B7B75FA7D164BA3FB0213F8
:100160005B08DBB2FA7DD31ADBB2013BBB7505E05D
:10017000FB7D023BFB75FB7D002BD3D17B6801220D
:100180001A607B7D1A05BB7D1B0413431A46FB686E
:10019000134343F440427B685A617B6800221A6033
:1001A0001837BD4680BD00BF0040044000800440B9
:1001B00060260000ABAAAAAA80B584B000AF786020
:1001C00039607A68304B9A4207D07A682F4B9A424E
:1001D00003D02F48882101F0CBF97A682A4B9A4244
:1001E0000AD14FF40050012100F078FB4FF4005089
:1001F000002100F0D5FA09E04FF48040012100F021
:100200006DFB4FF48040002100F0CAFA7B680122A8
:100210001A607B6800221A617B6800229A607B6802
:100220000E225A607B68DB68BB607B6800221A6024
:10023000184B01221A600023FB8107E0164BFA8954
:10024000002143F82210FB890133FB81FB89B3F5C0
:10025000007FF3D30F4B00225A600E4B00229A60AE
:100260000C4B0022DA600B4B00221A61094B002272
:100270005A61084B00221A6078683968FFF726FF38
:100280001037BD4680BD00BF0040044000800440E0
:100290006026000000C003400080034080B584B0A9
:1002A00000AF786039607A685C4B9A4208D07A680F
:1002B0005B4B9A4204D05B4840F2155101F058F96B
:1002C0003B685B7B002B08D03B685B7B012B04D039
:1002D000544840F2165101F04BF93B685B7B002B10
:1002E0000AD13B681B68DB0A002B0FD04D4840F257
:1002F000195101F03DF909E03B681B685B0F002BC9
:1003000004D0484840F21D5101F032F93B681B7B94
:100310001B09DBB2002B04D0424840F21F5101F010
:1003200027F93B689B7B002B08D03B689B7B012B0C
:1003300004D03C484FF4A46101F01AF97B68DB69F2
:1003400003F004039B08002B5ED07B681B6B23F437
:1003500070227B681A637B681A6B3B681B7B1B04EB
:100360001A437B681A633B689B7B012B06D17B6831
:100370001B6B43F080427B681A6305E07B681B6B54
:1003800023F080427B681A633B685B7B012B06D1BC
:100390007B681B6B43F000427B681A6305E07B6857
:1003A0001B6B23F000427B681A633B681A687B680A
:1003B0005A633B681B791A463B685B791B021A43F8
:1003C0003B689B791B041A433B68DB791B0613438C
:1003D000FB607B68FA689A633B681B7A1A463B6845
:1003E0005B7A1B021A433B689B7A1B041A433B68E7
:1003F000DB7A1B061343FB607B68FA68DA637B6871
:1004000021225A60012304E07B68DB697B68DB6999
:10041000002318461037BD4680BD00BF0040044091
:10042000008004406026000080B582B000AF786094
:1004300013460A46FA70BB707A683A4B9A4208D063
:100440007A68394B9A4204D0384840F28D6101F005
:100450008FF8FB78002B25D0FB78012B22D0FB787E
:10046000022B1FD0FB78032B1CD0FB78042B19D058
:10047000FB78052B16D0FB78062B13D0FB78072BC7
:1004800010D0FB78082B0DD0FB78092B0AD0FB7815
:100490000A2B07D0FB780B2B04D0244840F28E6146
:1004A00001F066F8BB78002B07D0BB78012B04D095
:1004B0001E4840F28F6101F05BF8BB78012B16D12A
:1004C000FB780B2B09D11A4B01221A60184B012221
:1004D0001A62174B04221A6020E07B681A69FB78C5
:1004E000012101FA03F31A437B681A6116E0FB78D5
:1004F0000B2B09D10E4B01221A600D4B01221A62FF
:100500000B4B00221A6009E07B681A69FB78012115
:1005100001FA03F3DB431A407B681A610837BD46D2
:1005200080BD00BF00400440008004406026000001
:1005300000C0034080B582B000AF78600B46FB700E
:100540007A681D4B9A4204D01C4840F2B46101F015
:100550000FF8FB78002B0DD0FB78012B0AD0FB782D
:10056000022B07D0FB78032B04D0144840F2B5616E
:1005700000F0FEFFFB78032B1AD801A252F823F0FB
:100580009105000099050000A1050000A9050000E3
:100590007B6800221A600BE07B6801221A6007E08A
:1005A0007B6802221A6003E07B6804221A6000BFA5
:1005B0000837BD4680BD00BF00C003406026000074
:1005C00080B582B000AF786013460A46FA70BB70FF
:1005D0007A68704B9A4208D07A686F4B9A4204D07E
:1005E0006E4840F2DD6100F0C3FFFB78002B19D0AC
:1005F000FB78012B16D0FB78022B13D0FB78032B52
:1006000010D0FB78042B0DD0FB78052B0AD0FB789B
:10061000062B07D0FB78072B04D0604840F2DE6140
:1006200000F0A6FFBB78002B07D0BB78012B04D0CD
:100630005A4840F2DF6100F09BFFFB78072B00F285
:10064000A68001A252F823F069060000710600009E
:1006500093060000CD0600000707000029070000F0
:100660004B0700006D0700007B6800221A608EE0D7
:10067000BB78012B06D17B681B6843F001027B68C5
:100680001A6084E07B681B6823F001027B681A60B3
:100690007DE07B681B6843F001027B681A60BB78D1
:1006A000012B06D17B681B6843F002027B681A604D
:1006B00005E07B681B6823F002027B681A607B6898
:1006C0001B6823F001027B681A6060E07B681B688E
:1006D00043F001027B681A60BB78012B06D17B686E
:1006E0001B6843F004027B681A6005E07B681B68A6
:1006F00023F004027B681A607B681B6823F0010208
:100700007B681A6043E0BB78012B06D17B681B68CD
:1007100043F008027B681A6039E07B681B6823F0AD
:1007200008027B681A6032E0BB78012B06D17B6837
:100730001B6843F010027B681A6028E07B681B6826
:1007400023F010027B681A6021E0BB78012B06D1F0
:100750007B681B6843F020027B681A6017E07B68A7
:100760001B6823F020027B681A6010E0BB78012B25
:1007700006D17B681B6843F080027B681A6005E045
:100780007B681B6823F080027B681A6000BF083713
:10079000BD4680BD0040044000800440602600004B
:1007A00080B485B000AF786039607B681F2B02D9B8
:1007B0007B68203B00E07B68FB607B681F2B17D8C1
:1007C000194B194AD2F8A811FA68032000FA02F26C
:1007D000D2430A40C3F8A821134B134AD2F8A811F8
:1007E000FA68386800FA02F20A43C3F8A82116E052
:1007F0000D4B0D4AD2F8AC11FA68032000FA02F250
:10080000D2430A40C3F8AC21074B074AD2F8AC11D7
:10081000FA68386800FA02F20A43C3F8AC211437C8
:10082000BD465DF8047B704700C00F4080B485B0C2
:1008300000AF78607B681F2B06D87B68FB600D4B90
:10084000D3F8A831BB6006E07B68203BFB60094B16
:10085000D3F8AC31BB60FB68BA6822FA03F303F04B
:100860000303BB60BB6818461437BD465DF8047BC4
:10087000704700BF00C00F4080B584B000AF786003
:10088000154B1B68BB607868FFF7D0FFF860FB680A
:10089000032B17D801A252F823F000BFAD080000C7
:1008A000B3080000B9080000BF0800000423FB6083
:1008B00008E00123FB6005E00223FB6002E008235F
:1008C000FB6000BFBA68FB68B2FBF3F3BB60BB68B8
:1008D00018461037BD4680BD0000001080B483B0BC
:1008E00000AF78600B46FB70FB78012B0AD10F4AF2
:1008F0000E4BD3F8C41078680D4B03400B43C2F87D
:10090000C4300DE0FB78002B0AD1084A074BD3F81E
:10091000C4107B68DB431940054B0B40C2F8C43060
:100920000C37BD465DF8047B704700BF00C00F4028
:10093000DEF7EFEF80B400AF4E4B2022C3F8A021CA
:100940004C4BD3F8A03103F02003002B07D000BF9D
:10095000484BD3F8A03103F04003002BF8D0454BAF
:100960000322C3F80421434B0022C3F8A821414BC2
:100970000022C3F8AC213F4B0122C3F80C213D4BB0
:100980003D4AC3F884203B4BAA22C3F88C20394B44
:100990005522C3F88C20374B0122C3F88020354BF9
:1009A000AA22C3F88C20334B5522C3F88C2000BFF9
:1009B000304BD3F8883003F08063002BF8D02D4BF8
:1009C0000322C3F880202B4BAA22C3F88C20294B8A
:1009D0005522C3F88C2000BF264BD3F8883003F093
:1009E0004073002BF8D0234B2322C3F8A420214BC3
:1009F000AA22C3F8AC201F4B5522C3F8AC201D4BD4
:100A00000122C3F8A0201B4BAA22C3F8AC20194B2B
:100A10005522C3F8AC2000BF164BD3F8A83003F41E
:100A20008063002BF8D0134B0322C3F8A020114B96
:100A3000AA22C3F8AC200F4B5522C3F8AC2000BF4C
:100A40000C4BD3F8A83003F44073002BF8D0094BBB
:100A50000A4AC3F8C420074B0022C3F8C821054B3B
:100A600043F23A021A60064B00229A60BD465DF8D6
:100A7000047B704700C00F4063000500DE87280438
:100A800000ED00E080B483B000AF0346FB71084B7B
:100A900097F907205209F97901F01F01012000FAA6
:100AA00001F143F822100C37BD465DF8047B704716
:100AB00000E100E080B582B000AF0023FB7100F0E0
:100AC00079F800F085F800F097F800F0ABF800F046
:100AD00055F900F0CDF82F4B4FF480629A61FA205F
:100AE00000F096F92B4B4FF48062DA61FA2000F0A7
:100AF0008FF929482949002201F01AF8284B5B7820
:100B0000002B02D00523FB7101E00023FB710020C4
:100B1000002101F04BFC224B1B781A46FB7921483F
:100B200011461A4600F098FC1D4B1A781E4BA3FB89
:100B30000213DB08BB711A4B1A78BB7919464901BD
:100B4000C91A8900CB1A5B00DBB213447B71BB79F5
:100B50003033DAB2154B1A717B793033DAB2134B7A
:100B60005A71124B2E229A71FB793033DAB20F4B45
:100B7000DA710E4B20221A720C4B47225A720B4B21
:100B800064229A72094B2022DA7209480749FFF75A
:100B900085FBA0E700C0092000C005406C040010E0
:100BA000980400101C270000CDCCCCCCA004001071
:100BB0000040044080B400AF044B044A126842F481
:100BC00080621A60BD465DF8047B704700C0092052
:100BD00080B500AF01F02AFA00200621082201F0BA
:100BE00029FB0020002101F0D3FC01F097FC042038
:100BF00001F014FD80BD00BF80B500AF01F08EFC98
:100C0000064800F029FC064800F026FC40F6B83003
:100C100000F0FEF801F082FC80BD00BF302700002C
:100C20005427000080B582B000AF00233B71002341
:100C3000FB700323BB7000237B7000233B703B469B
:100C4000184600F055FD01237B703B46184600F026
:100C50004FFD0548054900F09FFE0348012100F0C3
:100C6000EDFE0837BD4680BD00C00540A0860100EE
:100C700080B582B000AF3D4BAC221A703B4B0022D6
:100C80005A703B4B4F221A60394B384A5A60384BE6
:100C900002229A60364B00221A61354B00225A61BB
:100CA000334B0522DA6133483149002200F040FF1E
:100CB0002F4B4F221A602E4B2C4A5A602C4B01228C
:100CC0009A602B4B3A1D1A61294B01225A61284B1D
:100CD0000522DA6127482649002200F029FF3B79E6
:100CE000DBB25BB2002BE3DA204BEE221A70204B12
:100CF0001E4A5A601E4B01229A601D4B00221A6147
:100D00001B4B00225A611A4B0522DA611948184917
:100D1000002200F00DFF154BAA221A70144B4F222F
:100D20001A60134B114A5A60114B01229A60104B02
:100D3000114A1A610E4B02225A610D4B0522DA61EB
:100D40000023FB710023FB710AE00A4808490022D6
:100D500000F0EEFE322000F05BF8FB790133FB710E
:100D6000FB79022BF1D90837BD4680BD9C040010E9
:100D70006C04001000C005409804001080B582B0DB
:100D800000AF0323BB7000233B710023FB700023E3
:100D90003B7015237B703B46184600F0A9FC1623D8
:100DA0007B703B46184600F0A3FC15481549FFF739
:100DB00003FA134800210122FFF702FC104800212A
:100DC0000022FFF731FB0E4801210022FFF72CFB28
:100DD0001920FFF757FE0C480221FFF7ABFB0B4B26
:100DE00001225A73094B40F654021A60074B08223D
:100DF0001A73064B00229A730837BD4680BD00BFA8
:100E00000040044048E8010000C00340A004001076
:100E100080B483B000AF78604FF0402302225A6064
:100E20004FF040230022DA604FF040237A6846F208
:100E3000A71101FB02F29A614FF04023FF221A60D2
:100E40004FF0402304225A614FF0402301225A60A0
:100E500000BF4FF040235B6803F00103002BF8D183
:100E60000C37BD465DF8047B704700BF80B582B08B
:100E700000AF0346FB71FB79184601F011FB083700
:100E8000BD4680BD80B483B000AF78600B46FB7078
:100E90007B68FA781A70012318460C37BD465DF856
:100EA000047B704780B485B000AF78603960002360
:100EB000FB600AE07B685A1C7A603A68511C396012
:100EC00012781A70FB680133FB603B681B78002BBB
:100ED000F0D1FB6818461437BD465DF8047B7047B7
:100EE00080B586B000AFF8607A603B600B46FB725D
:100EF00000237B617B68013B7B603B68092B10D939
:100F00003A681E4BA3FB0213DB08FA7AF868114615
:100F10007A68FFF7E5FF78617B69FA681344FB6044
:100F200011E00DE0FB7AF8681946FFF7ABFFFB68AC
:100F30000133FB607B6901337B617B68013B7B6034
:100F40007B68002BEEDC39680C4BA3FB0123DA082D
:100F500013469B0013445B00CA1AD3B23033DBB292
:100F6000F8681946FFF78EFF03467A6913447B61E0
:100F70007B6918461837BD4680BD00BFCDCCCCCCB0
:100F800080B586B000AFF8607A603B600B46FB72BC
:100F900000237B613B68002B03DA3B685B423B61CB
:100FA00001E03B683B617B68013B7B603B69092B4F
:100FB00021D93B68002B0DDA3A692F4BA3FB0213B2
:100FC000DB085B42FA7AF86811467A68FFF7D8FFC7
:100FD00078610BE03A69284BA3FB0213DB08FA7A2D
:100FE000F86811467A68FFF7CBFF78617B69FA6889
:100FF0001344FB6026E03B68002B03DA7B68013B6F
:101000007B600EE00DE0FB7AF8681946FFF73AFFC7
:10101000FB680133FB607B6901337B617B68013BCB
:101020007B607B68002BEEDC3B68002B0ADAF868FB
:101030002D21FFF727FF03467A6913447B61FB6884
:101040000133FB6039690C4BA3FB0123DA0813461B
:101050009B0013445B00CA1AD3B23033DBB2F8688A
:101060001946FFF70FFF03467A6913447B617B69DA
:1010700018461837BD4680BDCDCCCCCC80B588B0E5
:1010800002AFF8607A600A46FA72BB7200237B6195
:101090007B68013B7B603B6A1B09002B12D03B6ADB
:1010A0001909FA7ABB7A0091F86811467A68FFF755
:1010B000E5FF03467A6913447B617B69FA68134450
:1010C000FB6011E00DE0FB7AF8681946FFF7DAFEE5
:1010D000FB680133FB607B6901337B617B68013B0B
:1010E0007B607B68002BEEDC3B6A03F00F03092B6F
:1010F0000BD83B6ADBB203F00F03DBB23033DBB259
:10110000F8681946FFF7BEFE19E0BB7A002B0BD03A
:101110003B6ADBB203F00F03DBB23733DBB2F868B4
:101120001946FFF7AFFE0AE03B6ADBB203F00F039C
:10113000DBB25733DBB2F8681946FFF7A3FE7B69D1
:1011400001337B617B6918461837BD4680BD00BFFF
:1011500080B58AB002AFF860B9607A603B60002366
:10116000BB6100237B61FB68002B03D0FB6800227E
:101170001A70F8E0F7E07B681B78252B0BD0FB6832
:101180005A1CFA607A68511C796012781A707B696F
:1011900001337B61E7E07B6801331B78252B0BD1A2
:1011A000FB685A1CFA6025221A707B6802337B6048
:1011B0007B6901337B61D6E02023FB770023BB777B
:1011C0007B6801337B607B681B78302B05D1302333
:1011D000FB777B6801337B600FE00EE0BB7F1A4634
:1011E000920013445B00DAB27B681B781344DBB2D5
:1011F000303BBB777B6801337B607B681B782F2B90
:1012000003D97B681B78392BE8D9BA7F7B691344F3
:101210001A46BB689A4205D9BB68DAB27B69DBB271
:10122000D31ABB777B681B78583B202B00F28D804C
:1012300001A252F823F000BF051300004B13000079
:101240004B1300004B1300004B1300004B13000026
:101250004B1300004B1300004B1300004B13000016
:101260004B13000035130000BD1200004B130000AB
:101270004B1300004B1300004B130000BD12000085
:101280004B1300004B1300004B1300004B130000E6
:101290004B1300004B1300004B1300004B130000D6
:1012A0004B130000211300004B130000D312000069
:1012B0004B1300004B130000E9120000BA7F3B689B
:1012C000191D39601B68F97FF868FFF759FEB8618E
:1012D0003EE0BA7F3B68191D39601B68F97FF868EA
:1012E000FFF7FEFDB86133E0BA7F3B68191D396036
:1012F0001968FB7F0091F86819460023FFF7BEFECE
:10130000B86125E0BA7F3B68191D39601968FB7F19
:101310000091F86819460123FFF7B0FEB86117E0A5
:101320003B681A1D3A601B68F8681946FFF7BAFD5A
:10133000B8610DE03B681A1D3A601B68DBB2F868C3
:101340001946FFF79FFDB86102E04FF0FF3325E03B
:101350007B6801337B60BB69FA681344FB607A6980
:10136000BB6913447B617B681B78002B04D07A69CE
:10137000BB689A42FFF4FFAE7A69BB689A4203D217
:10138000FB6800221A7008E0FB68013BFB60FB6809
:1013900000221A707B69013B7B617B69184620370C
:1013A000BD4680BD80B584B000AFF860B9607A609A
:1013B000F8686421BA687B68FFF7CAFE03461846DE
:1013C0001037BD4680BD00BFB0B5A6B000AFF86015
:1013D000B9607A60144B07F110041D460FCD0FC49D
:1013E0000FCD0FC42B68236007F134031846B9688A
:1013F0007A68FFF7D7FF0346632B09DD0B4B1B68A9
:10140000DB6807F110021046194600F059F8FEE7B4
:1014100007F134031846F96800F052F803461846FD
:101420009837BD46B0BD00BF7827000030040010DB
:1014300080B582B000AF78603960064B1B689B684E
:10144000184679683A68FFF7BFFF03461846083721
:10145000BD4680BD300400100FB480B582B000AF2F
:1014600007F114033B6038693968FFF7E1FF7860E2
:101470007B6818460837BD46BDE8804004B0704719
:1014800080B582B000AF786039600C4B1B689A68F9
:101490003B689A4205D0094B1B68DA683B689A4260
:1014A00006D17B68DBB21846FFF7E0FC7B6801E001
:1014B0004FF0FF3318460837BD4680BD300400109A
:1014C00080B584B000AF786039600023FB6012E023
:1014D0007B681B7818463968FFF7D2FF0346B3F1E3
:1014E000FF3F02D14FF0FF330AE0FB680133FB609E
:1014F0007B6801337B607B681B78002BE8D1FB683D
:1015000018461037BD4680BD80B582B000AF114B84
:101510007B60114B3B6007E03B681A1D3A607A68BC
:10152000111D796012681A603A680C4B9A42F3D325
:101530000B480C494FF000028842B8BF40F8042B1A
:10154000FFF6FAAFFFF7F6F9FFF7B4FA0837BD4632
:1015500080BD00BF582800000000001038040010B3
:1015600038040010C004001080B400AFFEE700BFD4
:1015700080B483B000AF78603960FEE780B487B094
:1015800000AF13460246FA710A46BA717B71BB7905
:101590007B61FB795B003B61184BFB607B690F2B28
:1015A00005D97B69103B7B613B6901333B613B693A
:1015B0009B00FA6813443A699200F9680A4411687A
:1015C0007A695200032000FA02F2D2430A401A60FC
:1015D0003B699B00FA6813443A699200F9680A442F
:1015E000116878797A69520000FA02F20A431A60A7
:1015F0001C37BD465DF8047B704700BF00C0024049
:1016000080B487B000AF13460246FA710A46BA7139
:101610007B71BB797B61FB795B003B61184BFB60A5
:101620007B690F2B05D97B69103B7B613B690133DB
:101630003B613B699B00FA6813443A699200F96880
:101640000A4411687A695200032000FA02F2D24378
:101650000A401A603B699B00FA6813443A69920099
:10166000F9680A44116878797A69520000FA02F23E
:101670000A431A601C37BD465DF8047B704700BF03
:1016800040C0024080B485B000AF13460246FA71F4
:101690000A46BA717B71154BFB607B79012B0FD128
:1016A000FB799B00FA681344FA799200F9680A44BE
:1016B0001168BA79012000FA02F20A431A600FE0B9
:1016C000FB799B00FA681344FA799200F9680A449E
:1016D0001168BA79012000FA02F2D2430A401A6076
:1016E0001437BD465DF8047B704700BF68C00240F8
:1016F00080B582B000AF78607B6819787B685A78D3
:101700007B689B78084611461A46FFF737FF7B68CF
:1017100019787B685A787B68DB78084611461A4648
:10172000FFF76EFF7B6819787B685A787B681B79B6
:10173000084611461A46FFF7A5FF0837BD4680BD8B
:1017400080B483B000AF0346FB71084B97F90720C4
:101750005209F97901F01F01012000FA01F143F863
:1017600022100C37BD465DF8047B704700E100E0B5
:1017700080B483B000AF0346FB71094B97F9072093
:101780005209F97901F01F01012000FA01F120321C
:1017900043F822100C37BD465DF8047B704700BF4C
:1017A00000E100E080B483B000AF78607A680C4B51
:1017B0009A4201D100230DE07A680A4B9A4201D186
:1017C000012307E07A68084B9A4201D1022301E025
:1017D0004FF0FF3318460C37BD465DF8047B704769
:1017E00000C0014000C0054000000A4080B483B042
:1017F00000AF78607B6808229A617B6820221A60BB
:1018000000BF7B681B6803F00803002BF9D07B68DE
:1018100020229A617B685B6803F0F80318460C3756
:10182000BD465DF8047B704780B483B000AF78603C
:101830007B681B6803F02003002B02D07B6820220A
:101840009A617B6810221A607B6808229A610C37C3
:10185000BD465DF8047B704780B483B000AF78600C
:101860000B46FB707B681B6803F02003002B02D043
:101870007B6820229A61FA787B689A607B680822EC
:101880009A6100BF7B681B6803F00803002BF9D046
:101890007B685B6803F0F80318460C37BD465DF8BB
:1018A000047B704780B485B000AFF860B960134620
:1018B000FB71FB79012B03D1FB6804221A6002E063
:1018C000FB6804229A61FB6808229A6100BFFB68EA
:1018D0001B6803F00803002BF9D0FB689B68DAB2A1
:1018E000BB681A70FB685B6803F0F803184614378E
:1018F000BD465DF8047B704780B584B000AF78606A
:1019000039607A68204B9A420BD07A681F4B9A4212
:1019100007D07A681E4B9A4203D01E48D821FFF7A1
:1019200027FE7A68184B9A4208D10E20FEF7A4FFD2
:1019300002463B68B2FBF3F3FB6018E07A68134B96
:101940009A4208D12620FEF797FF02463B68B2FB79
:10195000F3F3FB600BE07A680D4B9A4207D1262027
:10196000FEF78AFF02463B68B2FBF3F3FB60FB68BD
:101970005A087B681A617B681B69FA68D21A7B680F
:101980005A611037BD4680BD00C0014000C005400F
:1019900000000A409C27000080B582B000AF78604C
:1019A00039607A68214B9A420CD07A68204B9A426F
:1019B00008D07A681F4B9A4204D01F484FF48071B8
:1019C000FFF7D6FD7A68194B9A4208D18020012191
:1019D000FEF784FF0E200221FEF7E2FE1CE07A688B
:1019E000134B9A4209D14FF400200121FEF776FFF4
:1019F00026200221FEF7D4FE0EE07A680D4B9A42B3
:101A000009D14FF080600121FEF768FF34200221E8
:101A1000FEF7C6FE00E006E078683968FFF76CFF65
:101A20007B6864229A610837BD4680BD00C00140D2
:101A300000C0054000000A409C27000080B582B02D
:101A400000AF78600B46FB70FB78002B07D0FB786B
:101A5000012B04D0114840F25111FFF789FD7A683B
:101A60000F4B9A420CD07A680E4B9A4208D07A6893
:101A70000D4B9A4204D009484FF4A971FFF778FD45
:101A8000FB78012B03D17B6840221A6002E07B685F
:101A900040229A610837BD4680BD00BF9C270000E8
:101AA00000C0014000C0054000000A4080B582B07F
:101AB00000AF78600B46FB70FB78002B17D07A687C
:101AC000184B9A4203D10A20FFF73AFE26E07A68C3
:101AD000154B9A4203D10B20FFF732FE1EE07A68C5
:101AE000124B9A421AD10C20FFF72AFE17E07A68AF
:101AF0000C4B9A4203D10A20FFF73AFE0EE07A68B7
:101B0000094B9A4203D10B20FFF732FE06E07A68B8
:101B1000064B9A4202D10C20FFF72AFE00BF08377D
:101B2000BD4680BD00C0014000C0054000000A4025
:101B300080B588B000AFF860B9601346FB71BB6830
:101B40005B68FB61BB681B69BB61BB680022DA6034
:101B5000BB6800229A61BB6800225A62FB79002BA5
:101B600040F02981BB6800221A62BB685B68FB6198
:101B7000BB681B69BB61BB680022DA60BB680022DE
:101B80009A6100237B61F868FFF730FE78617B691A
:101B9000082B12D07B69102B0FD0BB681B6A5A1C14
:101BA000BB681A62BB681A6ABB68DB699A4203D9D0
:101BB000BB687A695A62F9E0D7E7BB689B68002B7B
:101BC0004DD0BB685B68002B49D0BB681B68DBB29B
:101BD0005B00DBB2F8681946FFF73EFE78617B696F
:101BE000182B11D0BB681B6A5A1CBB681A62BB68F1
:101BF0001A6ABB68DB699A4205D97B6943F40072B3
:101C0000BB685A62D2E0B0E723E0FB691B78F86852
:101C10001946FFF721FE78617B69282B11D0BB683C
:101C20001B6A5A1CBB681A62BB681A6ABB68DB690C
:101C30009A4205D97B6943F40072BB685A62B5E0E9
:101C400093E7FB690133FB61BB68DB685A1CBB6827
:101C5000DA60BB68DA68BB689B689A42D5D3BB6818
:101C60009B68002B25D0BB685B68002B21D0BB682C
:101C70005B69002B1DD0BB681B69002B19D0F8686D
:101C8000FFF7B4FD78617B69082B12D07B69102BBC
:101C90000FD0BB681B6A5A1CBB681A62BB681A6A01
:101CA000BB68DB699A4203D9BB687A695A627DE0F6
:101CB0005BE7BB685B69002B73D0BB681B69002BBB
:101CC0006FD0BB681B68DBB25B00DBB243F0010383
:101CD000DBB2F8681946FFF7BFFD78617B69402BDE
:101CE00011D0BB681B6A5A1CBB681A62BB681A6AAF
:101CF000BB68DB699A4205D97B6943F40072BB6813
:101D00005A6253E031E746E0BB689A69BB685B6999
:101D1000013B9A421AD207F11303F86819460122CF
:101D2000FFF7C0FD78617B69502B2AD0BB681B6A26
:101D30005A1CBB681A62BB681A6ABB68DB699A42A4
:101D400003D9BB687A695A6230E00EE707F11303E2
:101D5000F86819460022FFF7A5FD78617B69582BCA
:101D60000FD0BB681B6A5A1CBB681A62BB681A6A30
:101D7000BB68DB699A4203D9BB687A695A6215E08D
:101D8000F3E6BB695A1CBA61FA7C1A70BB689B699E
:101D90005A1CBB689A61BB689A69BB685B699A42C6
:101DA000B2D3F868FFF740FD012326E0F868FFF79B
:101DB0003BFD002321E0FB79012B1DD1F868FFF7E3
:101DC000F1FC0346DBB2FB74FB7C1A46B9680D4B91
:101DD00043F83210FB7C0B4ADB00134400225A60AC
:101DE000FB6808229A61FB6820221A60F8680121CA
:101DF000FFF75CFE012300E0002318462037BD46B4
:101E000080BD00BF3804001080B483B000AF03462B
:101E1000FB71FB7903F00103002B03D0344B01224B
:101E20009A6102E0324B0122DA61FB7903F002038E
:101E3000002B03D02E4B02229A6102E02C4B02228F
:101E4000DA61FB7903F00403002B03D0284B102246
:101E50009A6102E0264B1022DA61FB7903F0080355
:101E6000002B04D0224B4FF480729A6103E0204B88
:101E70004FF48072DA61FB7903F01003002B04D079
:101E80001B4B4FF400729A6103E0194B4FF4007240
:101E9000DA61FB7903F02003002B04D0144B4FF4DC
:101EA00080629A6103E0124B4FF48062DA61FB7941
:101EB00003F04003002B04D00D4B4FF480429A6195
:101EC00003E00B4B4FF48042DA61FB795BB2002BED
:101ED00004DA074B4FF400429A6103E0044B4FF4DD
:101EE0000042DA610C37BD465DF8047B704700BFE5
:101EF00020C0092080B483B000AF0346FB71FB799A
:101F000003F00103002B06D0474B474A126842F00A
:101F100001021A6005E0444B434A126822F00102B4
:101F20001A60FB7903F00203002B06D03E4B3E4AB9
:101F3000126842F002021A6005E03B4B3A4A12680E
:101F400022F002021A60FB7903F00403002B06D092
:101F5000354B354A126842F010021A6005E0324BE8
:101F6000314A126822F010021A60FB7903F008036C
:101F7000002B06D02C4B2C4A126842F480721A6057
:101F800005E0294B284A126822F480721A60FB7916
:101F900003F01003002B06D0234B234A126842F4AF
:101FA00000721A6005E0204B1F4A126822F400728A
:101FB0001A60FB7903F02003002B06D01A4B1A4A53
:101FC000126842F480621A6005E0174B164A1268E4
:101FD00022F480621A60FB7903F04003002B06D0E4
:101FE000114B114A126842F480421A6005E00E4B10
:101FF0000D4A126822F480421A60FB795BB2002B12
:1020000006DA094B084A126842F400421A6005E0F9
:10201000054B054A126822F400421A600C37BD468F
:102020005DF8047B704700BF20C0092080B500AF79
:102030000D4B0D4A126842F480321A600A4B0A4A6C
:10204000126842F400321A60074B074A126842F4E1
:1020500080221A60044B044AD26942F48022DA6179
:102060000020FFF747FF80BD20C0092080B582B067
:1020700000AF02460B46FA71BB7100F073F8FB79B2
:10208000012B06D12C4B2C4A926942F480329A6182
:1020900005E0294B284AD26942F48032DA61264BA6
:1020A000254AD26942F40032DA61FF20FFF722FFAD
:1020B000BB791846FFF7A8FE1F4B1F4A926942F4EE
:1020C00080229A611C4B1C4A926942F480229A61D8
:1020D000194B194A926942F480229A61164B164AAA
:1020E000926942F480229A61134B134A926942F436
:1020F00080229A61104B104A926942F480229A61C0
:102100000D4B0D4A926942F480229A610A4B0A4AA9
:10211000926942F480229A61074B074A926942F41D
:1021200080229A61044B044AD26942F48022DA6127
:102130000837BD4680BD00BF20C0092080B582B0F1
:1021400000AF02460B46FA71BB71FB7901201946BC
:10215000FFF78CFFBB7900201946FFF787FF083790
:10216000BD4680BD80B582B000AF314B304AD269E8
:1021700042F48022DA612E4B2D4A926942F40032F9
:102180009A612B4B2A4A926942F480329A6100206C
:10219000FFF7B0FE0020FFF7ADFE0020FFF7AAFE1C
:1021A0000020FFF7A7FE224B214A926942F48022C9
:1021B0009A611F4B1E4A926942F480229A611C4B1D
:1021C0001B4A926942F480229A61194B184A92691B
:1021D00042F480229A61164B154A926942F4802299
:1021E0009A61134B124A926942F480229A61104B11
:1021F0000F4A926942F480229A6100237B600BE0CF
:1022000000233B6002E03B6801333B603B68092BE5
:10221000F9DD7B6801337B607B68632BF0DD044B69
:10222000034AD26942F48022DA610837BD4680BD94
:1022300020C0092080B582B000AF13460246FA7173
:102240000A46BA717B714D4B10225A70FB79002BF4
:102250000ED0FB79012B0BD00823BB7101237B71BE
:10226000464B5B7843F00203DAB2444B5A7007E006
:10227000BB79082B02D87B79102B01D9002378E099
:10228000FB79002B04D10623BB7108237B7106E088
:102290003A4B5B7843F00103DAB2384B5A70374B54
:1022A000FA791A70354BBA791A71344B7A795A71B6
:1022B000324BBA799A71314B7A79DA712F4BC0224D
:1022C0009A702E4B2022DA702C4B00229A81BB7917
:1022D000C02292FBF3F3DAB2284B1A727B792022E8
:1022E00092FBF3F3DAB2254B5A72244B1A7A234B42
:1022F0009A72224B5A7A214BDA72BA79C02393FB35
:10230000F2F102FB01F29B1A002B05D01B4B9B7ACA
:102310000133DAB2194B9A72184B9B7A03F001031E
:10232000002B05D0154B9B7A0133DAB2134B9A720E
:10233000124B5B7800201946FFF700FF7B79013BC9
:10234000DBB21B01DAB2BB791344DBB2013BDBB277
:1023500001201946FFF7F2FE084B9B7A013BDBB2E6
:1023600002201946FFF7EAFE03201F21FFF7E6FED1
:10237000012318460837BD4680BD00BFB0040010D9
:1023800080B500AF084B9B89DBB208201946FFF7E8
:10239000D5FE054B9B891B0A9BB2DBB2092019466F
:1023A000FFF7CCFE80BD00BFB004001080B584B044
:1023B00000AF02460B46FA71BB71134BFA799A7360
:1023C000114BBA79DA73104B9A89BB799BB20E49DB
:1023D000897A01FB03F39BB213449AB2FB799BB257
:1023E0001344FB81FB89DBB20A201946FFF7A6FEE6
:1023F000FB891B0A9BB2DBB20B201946FFF79EFE3E
:102400001037BD4680BD00BFB004001080B582B05B
:1024100000AF224B9B7BBB71204BDB7B0133DAB2DD
:102420001E4BDA731D4BDB7B00201946FFF7BEFF06
:102430001A4B9B7A7B7101200C21FFF717FE0023BA
:10244000FB7106E000202021FFF710FEFB7901332D
:10245000FB71FA797B799A42F4D3104BDB7BBA7922
:1024600010461946FFF7A2FF0C4BDA7B0B4B5B7A49
:102470009A420FD1094BDB7B013BDAB2074BDA738F
:10248000064B9A89054B9B7A13449AB2034B9A8167
:10249000FFF776FF0837BD4680BD00BFB0040010CF
:1024A00080B582B000AF0346FB71FB790A2B02D1E5
:1024B000FFF7ACFF2BE0FB790D2B06D1164BDB7B36
:1024C00000201946FFF772FF21E0134B1A7A124BD6
:1024D0009B7B9A4204D1104B00229A73FFF796FF20
:1024E0000D4B9A7B0C4BDB7B10461946FFF75EFFCA
:1024F00001200C21FFF7BAFDFB7900201946FFF7F8
:10250000B5FD054B9B7B0133DAB2034B9A73002375
:1025100018460837BD4680BDB004001080B582B0B3
:1025200000AF1A4B00229A81FFF72AFF00200021FA
:10253000FFF73CFF154B5B7803F00203002B02D042
:1025400000237B7101E020237B71104B9B7A0F4AA3
:10255000D27A02FB03F37B8001200C21FFF786FD7A
:102560000023FB8007E07B7900201946FFF77EFD02
:10257000FB880133FB80FA887B889A42F3D30020E2
:102580000021FFF713FF0837BD4680BDB0040010DF
:1025900080B582B000AF02460B46FA71BB711E4B8C
:1025A0005B7803F00203002B01D000232FE01A4BCD
:1025B000DB79BA799A4201D9002328E0BB79002B54
:1025C00002D1154BDB79BB71134B5B7823F00C0305
:1025D000DAB2114B5A70104B5B78DAB2FB799B0080
:1025E000DBB203F00C03DBB21343DBB2DAB20A4B0B
:1025F0005A70BB79013BDBB204201946FFF79EFD00
:10260000054B5B7800201946FFF798FD012318461B
:102610000837BD4680BD00BFB004001080B582B051
:1026200000AF0346FB710D4B5B7823F02C03DAB24D
:102630000A4B5A70FB79042B06D1084B5B7843F0A8
:102640002003DAB2054B5A70044B5B780020194620
:10265000FFF774FD0837BD4680BD00BFB004001011
:10266000433A5C55736572735C4E69636F5C446595
:10267000736B746F705C5374756469756D5F5363CD
:1026800068756C655C30325F4D6173746572204DA6
:102690006563686174726F6E696B5C322E2053657E
:1026A0006D65737465725C446174656E6B6F6D6D9E
:1026B000756E696B6174696F6E206D6563686174B6
:1026C000726F6E6973636865722053797374656D98
:1026D000655C30345F50726F6A656B7461726265FD
:1026E00069745C54656D7065726174757273656E42
:1026F000736F725F4453313632315C6C70633137C3
:1027000078785F6C69625C736F757263655C6C701E
:1027100063313778785F63616E2E630054656D7046
:102720006572617475723A2025642E256420430019
:102730002A2A2A2054656D706572617475727365FA
:102740006E736F722020445331363231202A2A2A88
:10275000000000000A0D20417565722C204C696E46
:1027600067672C204D61696572202D20536F53657A
:102770002032303135000000737464696F2E633A83
:1027800020696E637265617365204D41585F5354D3
:1027900052494E475F53495A450A0D00433A5C552A
:1027A000736572735C4E69636F5C4465736B746FC1
:1027B000705C5374756469756D5F536368756C659F
:1027C0005C30325F4D6173746572204D6563686182
:1027D00074726F6E696B5C322E2053656D65737415
:1027E00065725C446174656E6B6F6D6D756E696B5F
:1027F0006174696F6E206D6563686174726F6E6974
:1028000073636865722053797374656D655C3034E9
:102810005F50726F6A656B746172626569745C5453
:10282000656D7065726174757273656E736F725FDA
:102830004453313632315C6C7063313778785F6C79
:1028400069625C736F757263655C6C706331377855
:08285000785F6932632E63001A
:1028580000E1F50500000000000000000000000095
:10286800010000000000000000000000000000005F
:102878000000000000000000000000000000000050
:102888000000000000000000000000000000000040
:102898000000000000000000000000000000000030
:1028A8000000000000000000000000000000000020
:082C880008000010000000002C
:00000001FF
